:020000040800F2
:1000000040040020D927000801280008052800081E
:10001000092800080D280008112800080000000029
:10002000000000000000000000000000152800088B
:1000300019280008000000001D28000821280008D9
:1000400025280008292800082D2800083128000844
:1000500035280008392800083D28000841280008F4
:1000600045280008492800084D28000851280008A4
:1000700055280008592800085D2800086128000854
:1000800065280008692800086D2800087128000804
:1000900075280008792800087D28000881280008B4
:1000A00085280008892800088D2800089128000864
:1000B00095280008992800089D280008A128000814
:1000C000A5280008A9280008AD280008B1280008C4
:1000D000B5280008B9280008BD280008C128000874
:1000E000FB070008C5280008C9280008CD2800081B
:1000F000D1280008D5280008D9280008DD280008E4
:10010000E1280008E5280008E9280008ED28000893
:10011000F1280008F5280008F9280008FD28000843
:100120000129000805290008092900080D290008EF
:100130001129000815290008192900081D2900089F
:100140002129000825290008292900082D2900084F
:100150003129000835290008392900083D290008FF
:100160004129000845290008492900084D290008AF
:100170005129000855290008592900085D2900085F
:10018000612900086529000880B500F0A9FA00F08F
:1001900002FB00F0E5FC4FF4967000F0FFFB00F06E
:1001A0003CFF01F020F8DFF80809006850F0040077
:1001B000DFF8FC18086000F03CFB4FF4187001F009
:1001C0006FF8002805D14FF4187001F069F80A287B
:1001D00007DA4FF4187001F063F8DFF8D8180870E8
:1001E00006E0DFF8D00801784FF4187001F029F824
:1001F00000F001F8FCE780B500F095FBB0F53F4F4B
:1002000000F0D180B0F55F4F00F0AD80B0F56F4FDA
:1002100000F08980B0F5774F65D0B0F57B4F42D0C4
:10022000B0F57D4F1FD0B0F57E4F40F0DB80DFF89A
:1002300080080068000C0004DFF874180860DFF81C
:100240007008006850F00100DFF86418086000F0E2
:1002500094FB0020DFF8601808704222032102207E
:1002600000F09EFEBEE0DFF848080068000C0004C5
:10027000DFF83C180860DFF83808006850F002002A
:10028000DFF82C18086000F078FB0120DFF8281850
:100290000870DFF8240802783032D2B2032102203D
:1002A00000F07EFE9EE0DFF808080068000C000405
:1002B000DFF8FC170860DFF8F807006850F004006A
:1002C000DFF8EC17086000F058FB0220DFF8E817B1
:1002D0000870DFF8E40702783032D2B2032102203E
:1002E00000F05EFE7EE0DFF8C8070068000C000446
:1002F000DFF8BC170860DFF8B807006850F00800A6
:10030000DFF8AC17086000F038FB0320DFF8A8170F
:100310000870DFF8A40702783032D2B2032102203D
:1003200000F03EFE5EE0DFF888070068000C000485
:10033000DFF87C170860DFF87807006850F01000DD
:10034000DFF86C17086000F018FB0420DFF868176E
:100350000870DFF8640702783032D2B2032102203D
:1003600000F01EFE3EE0DFF848070068000C0004C5
:10037000DFF83C170860DFF83807006850F020000D
:10038000DFF82C17086000F0F8FA0520DFF82817CE
:100390000870DFF8240702783032D2B2032102203D
:1003A00000F0FEFD1EE0DFF808070068000C000406
:1003B000DFF8FC160860DFF8F806006850F040002F
:1003C000DFF8EC16086000F0D8FA0620DFF8E8162F
:1003D0000870DFF8E40602783032D2B2032102203E
:1003E00000F0DEFD01BD80B5BCA20021012000F0BF
:1003F000EEFDDFF8C80600F0A7FB0E2314220C2147
:100400000A2000F0A9FC5FF0FF30DFF8B4160860A6
:100410006BE05FF47F0000F093FBDFF8A406036855
:1004200014339BB21C22DFF898060168143189B29C
:100430000C2000F0C5FC1423DFF8840602681C328F
:1004400092B20F21DFF878060068143080B200F015
:10045000B7FC1423DFF8680602681C3292B2192137
:10046000DFF85C060068143080B200F0A9FC35E0CB
:10047000DFF844060078DFF84C1609788842C8D2C5
:1004800040F6FF7000F05CFBDFF8340603681433BD
:100490009BB21C22DFF828060168143189B20C20B7
:1004A00000F08EFC0F23DFF818060268143292B2B7
:1004B0001421DFF80C0600680C3080B200F080FCDC
:1004C0001923DFF8FC050268143292B21421DFF818
:1004D000F00500680C3080B200F072FCDFF8E00537
:1004E0000068401CDFF8D8150860DFF8D405006804
:1004F0000228BDDB01BD80B5DFF8C8050078DFF854
:10050000B8150978884200F0E680DFF8AC0500787D
:10051000DFF8B0150978884256D2FFF764FFDFF89C
:100520009C0500F011FB09234FF4FA7228210020EA
:1005300000F012FCFF2000F007FB0823082228210E
:10054000DFF8800500780001303080B200F004FC54
:1005500027E0DFF870050078401EDFF86C150870A2
:10056000FF2000F0F1FA0823DFF858050178DFF8E2
:1005700058050078091A89B20A0192B22821DFF8D9
:10058000480500780001303080B200F0E5FBDFF86C
:1005900034050078401EDFF82C150870962000F016
:1005A000FDF9DFF814050078DFF81815097888429E
:1005B000CFD30120DFF814150870DFF8FC040078B1
:1005C000DFF8001508707AE0DFF8F8040078DFF84B
:1005D000E8140978884272D2FFF705FF002000F086
:1005E000AFFADFF8D80400F0AFFA09234FF4FA723B
:1005F0002821002000F0B0FB28E0DFF8C8040078D4
:10060000401CDFF8C41408705FF47F0000F09CFA0F
:100610000823DFF8B4040178DFF8A8040078091A89
:1006200089B20A0192B22821DFF89804007800010B
:10063000303080B200F090FBDFF888040078401C76
:10064000DFF880140870962000F0A8F9DFF8740431
:100650000078DFF8641409788842CED35FF47F0015
:1006600000F072FA082308222821DFF858040078E5
:100670000001303080B200F06FFBDFF83C040078FE
:10068000DFF840140870DFF83C040078062816D123
:10069000DFF820040078401CDFF818140870DFF839
:1006A000140400780A2803D10020DFF80814087029
:1006B000DFF8000401784FF4187000F0C2FD00F07C
:1006C0008BF9C82000F06AF900F0A9F9C82000F001
:1006D00065F900F0C7F900F0ACF801BD4D0000006D
:1006E000DFF8EC03006850F04000DFF8E413086026
:1006F000DFF8E003006840F4AA4050F05500DFF84E
:10070000D4130860DFF8D0030068000A0002DFF8A5
:10071000C8130860DFF8C403006840F4AA4050F032
:100720005500DFF8B8130860DFF8A403006850F044
:100730008000DFF89C130860DFF8A403006880B233
:10074000DFF89C130860DFF89C03006880B2DFF8D4
:1007500094130860DFF87803006850F02000DFF899
:1007600070130860DFF88003006850F48020DFF821
:1007700078130860DFF87403006830F40070DFF865
:100780006C130860DFF86803006850F48020DFF81D
:10079000601308607047DFF83803006850F080008D
:1007A000DFF82C130860DFF84C03006850F4804039
:1007B000DFF840130860DFF82803006880B2C849FA
:1007C0000860DFF83403006850F4E040DFF82813D5
:1007D0000860DFF82803006850F40040C74908604B
:1007E000C748006850F40040C5490860C548006823
:1007F00050F48070C3490860704780B5C2480068F3
:10080000000415D5C048006850F40040BE49086097
:10081000A748006850F08000A5490860A948007802
:10082000A5490978884201D100F0A7F8FFF763FED7
:1008300001BD80B5A14800F0A2FB9D48006830F0E2
:1008400080009B490860B14800F082F99B4800F0A5
:100850006FF9002000F070F9AD4A0021002000F08F
:10086000B6FBAC4A0021012000F0B1FBAA4800F021
:1008700063F9924800F068F90E2314220C210A2033
:1008800000F06AFA89A20221012000F0A0FB4FF4D7
:10089000187000F005FD30300200D2B209210120AD
:1008A00000F07EFB002000F047F99C4A0021022066
:1008B00000F08DFB83480078002805D142220321F7
:1008C000022000F06DFB07E07E4802783032D2B2A1
:1008D0000321022000F064FB002000F031F97B4886
:1008E0000078012806D1FF2000F02EF9002077497A
:1008F000087003E05FF47F0000F026F90823082267
:100900002821704800780001303080B200F024FACD
:100910000823082228216B4800780001303080B27B
:1009200000F0F3F901BD10B57D48046814F47F446C
:10093000200080B2B0F57F4F0FD17A4800780028B0
:1009400002D1200080B217E00A2000F027F8002032
:1009500074490870200080B20EE0724800780028C8
:1009600002D04FF47F4007E001206E4908700A2052
:1009700000F014F8200080B210BD80B56A4800680D
:1009800050F40070684908601E2000F007F86648BF
:10099000006830F400706449086001BD38B5040097
:1009A000002504E04FF47A7000F008F86D1C280070
:1009B000210080B289B28842F4D331BD81B080B2C7
:1009C00011214843009002E00098401E00900098DA
:1009D0000028F9D101B0704780B500205349086064
:1009E00018E05148006850F400704F49086040F228
:1009F000EB50FFF7E3FF4C48006830F400704A49C1
:100A0000086040F2EB50FFF7D9FF48480068401CEF
:100A100046490860454800681728E2DB01BD80B5FB
:100A200000204249086018E03F48006850F4007018
:100A30003D49086040F2FB40FFF7C0FF3A480068BC
:100A400030F400703849086040F2FB40FFF7B6FF11
:100A500036480068401C35490860344800681B2847
:100A6000E2DB01BD80B500203049086018E02E4867
:100A7000006850F400702C49086040F2BA30FFF76B
:100A80009DFF2948006830F400702749086040F253
:100A9000BA30FFF793FF25480068401C23490860DF
:100AA000224800682428E2DB01BD00004F0000005E
:100AB00014180240370000203500002000FFFF001E
:100AC0001C000020340000203600002038000020E8
:100AD0003038024000180240041802400818024052
:100AE000001C02400C1C024000140240041402408E
:100AF0000814024044380240143801400C3C0140C4
:100B0000003C014004E100E0143C01400C000020E6
:100B1000C8270008E8270008FF00EB00B4270008FA
:100B2000101C02403900002014140240180000205C
:100B3000DFF8541408607047DFF8501408607047FD
:100B4000DFF84C1408607047DFF8481408607047FD
:100B5000DFF8441408607047DFF83C040068704711
:100B600080B50020DFF820140860DFF81C0400685E
:100B7000DFF8201408607FF07F40DFF81014086071
:100B8000DFF808040068DFF808140860DFF80C04D8
:100B9000DFF80414086000F0ABFC7FF07F4000F049
:100BA000EEF901BD2DE9F0411400DFF8EC231268E5
:100BB000928812FA80F2A02A51DADFF8DC23126858
:100BC000D2885218531E9BB2DFF8CC231268928849
:100BD0001218521E92B289B280B200F081FDDFF885
:100BE000B80300688088082804DADFF8AC030068DE
:100BF000858800E0082500F09DFB002600E0761CBB
:100C00003000DFF894130968098980B2884224D241
:100C1000DFF88403006801682200D2B2DFF87803AD
:100C200000680089424312FA86F00F5C5FF000080A
:100C3000280080B28045E2DA380605D4DFF84803A0
:100C4000006800F07CFB04E0DFF84003006800F07F
:100C500076FB7F0018F10108EAE700F081FBBDE8B0
:100C6000F081F8B504000D001600002710E032787E
:100C7000290089B23B009BB2DFF81C030068808822
:100C8000434313FA84F080B2FFF78CFF761C7F1C7D
:100C900030780028EBD1F1BD38B50B0014009BB2C1
:100CA000221892B2190089B280B200F019FD00F04A
:100CB00041FB002504E0B648006800F040FB6D1CD5
:100CC0002800210080B289B28842F4D300F048FBAA
:100CD00031BD38B5140063189BB2020092B289B2DC
:100CE00080B200F0FDFC00F025FB002504E0A848E0
:100CF000006800F024FB6D1C2000290080B289B23E
:100D00008842F4D200F02CFB31BDF8B504000D0090
:100D100016001F00320092B2290089B2200080B272
:100D2000FFF7BAFF320092B2791989B2200080B27F
:100D3000FFF7B2FF3A0092B2290089B2200080B2D8
:100D4000FFF7C7FF3A0092B2290089B23419200098
:100D500080B2FFF7BEFFF1BD70B514001D006A1828
:100D6000531E9BB22218521E92B289B280B200F07A
:100D7000B7FC00F0DFFA002604E08648006800F0C7
:100D8000DEFA761C210089B2280080B241438E42EF
:100D9000F3D300F0E5FA70BD80B502000B009BB202
:100DA00092B2190089B2100080B200F099FC00F0F4
:100DB000C1FA7748006800F0C2FA00F0D1FA01BD2C
:100DC0002DE9F84F8246884614001F0000200020BD
:100DD000002000200020002000200020504621009C
:100DE00080B289B288420DD14046390080B289B2C2
:100DF000884207D1414689B2504680B2FFF7CCFF06
:100E0000BDE8F18F4046390080B289B2884217D1DF
:100E10002000514680B289B2884202D22000544656
:100E200082462000514680B289B28842E8D34146CA
:100E300089B2504680B2FFF7AFFF1AF1010AF0E71E
:100E40005046210080B289B2884217D1380041460D
:100E500080B289B2884202D23800474680463800C4
:100E6000414680B289B28842CAD3414689B25046CF
:100E700080B2FFF791FF18F10108F0E7200051461A
:100E800080B289B2884205D2514689B2200080B230
:100E9000081A04E0210089B2504680B2081A3900CD
:100EA000424689B292B2914205D2424692B239008C
:100EB00089B2511A04E03A0092B2414689B2511AFD
:100EC000884202DA5FF0010B01E05FF0000B584648
:100ED000C0B2002805D04046D046824638002700E0
:100EE00004002000514680B289B2884205D24046B3
:100EF000B8460700200054468246B4EB0A05380085
:100F0000414680B289B2884202D2B8EB070601E0BE
:100F1000B7EB0806280080B2401C4042022190FB3B
:100F2000F1F9404680B2BFB2B84201D2012701E0D8
:100F30005FF0FF3711E0414689B2504680B2FFF7BB
:100F40002BFF16EB0909484600B2002803D448FAE3
:100F500087F8B9EB05091AF1010A2000514680B261
:100F600089B28842FFF44CAF5846C0B20028E2D0A4
:100F7000514689B2404680B2FFF70EFFE1E780B5E7
:100F800000F0F6FB01BD0000240000202C00002032
:100F90003000002028000020200000200000002059
:100FA000F8B504000D001600FFF7D6FD0700FFF7A7
:100FB000D3FD3200D2B2F988491C14FB01F189B289
:100FC000808815FB00F080B2FFF7ECFDF1BDF8B5AD
:100FD00004000D001600FFF7BFFD0700FFF7BCFD82
:100FE0003200F988491C14FB01F189B2808815FB95
:100FF00000F080B2FFF735FEF1BD0000BE49098860
:101000008907FBD5C0B2BD490880BB480088C0072E
:10101000FBD5BA480088C0B27047B948006850F4A0
:101020008040B7490860B748006850F48070B549FF
:101030000860B548006850F48070B3490860B34850
:10104000006830F01000B1490860B148006850F401
:101050000070AF490860AF48006830F44070AD4997
:101060000860A948006850F00100A7490860A74837
:10107000006840084000A5490860A548006850F095
:101080000200A3490860A348006880088000A149C5
:1010900008609D48006850F008009B4908609B4824
:1010A000006830F00200994908609948006850F0E3
:1010B0000800974908609748006850F00800954973
:1010C00008609548006850F05000934908608E48C9
:1010D000006850F020008C4908608C48006830F0AF
:1010E00004008A4908608A48006850F02000884956
:1010F00008608848006850F02000864908608648EB
:10110000006850F4A060844908607F48006850F08F
:1011100080007D4908607D48006830F008007B4908
:1011200008607B48006850F0800079490860794881
:10113000006850F08000774908607748006850F4F4
:10114000A040754908607548008850F00400734954
:101150000880724800884004400C704908806F483D
:1011600001884FF2FF7001406C4801806B48008895
:1011700050F40070694908806848008850F4807015
:1011800066490880654801884FF67F7001406348D2
:1011900001806248008850F02000604908805F4864
:1011A000008850F002005D4908805C48008850F0DB
:1011B00001005A4908805948008850F040005749BA
:1011C0000880704780B55649096849084900544A63
:1011D0001160C0B2FFF712FF5148006850F00100E3
:1011E0004F49086001BD10B50024002001204C4982
:1011F000096851F010014A4A1160494909684908D3
:101200004900474A1160C0B2FFF7F8FE2000C0B2A3
:10121000FFF7F4FE4248006850F0010040490860C2
:1012200005203F490968490849003D4A1160C0B29C
:10123000FFF7E4FE3A48006850F0010038490860C2
:1012400010BD38B504000D000620FFF7BBFF0220DB
:101250008DF80000200000B200128DF801008DF81A
:1012600002408DF803502E480068400840002C4989
:1012700008609DF80000FFF7C1FE9DF80100FFF730
:10128000BDFE9DF80200FFF7B9FE9DF80300FFF7D1
:10129000B5FE2348006850F001002149086031BDC7
:1012A0001CB504000420FFF78DFF03208DF800001B
:1012B000200000B200128DF801008DF8024018489D
:1012C000006840084000164908609DF80000FFF7DC
:1012D00095FE9DF80100FFF791FE9DF80200FFF7D3
:1012E0008DFEFF20FFF78AFE0D49096851F00101CC
:1012F0000B4A1160C0B216BD083800400C380040DF
:1013000040380240303802400020024004200240B1
:10131000082002400C2002402020024000380040FB
:10132000142002405FF0C04108707047DFF8981346
:101330000870704780B52C20FFF7F4FF01BD10B591
:1013400004002000000CC0B2FFF7F0FF2000000AEC
:10135000C0B2FFF7EBFF2000C0B2FFF7E7FF10BD00
:1013600080B50020FFF7DEFF01BDE0B50121382088
:1013700000F018FA02208DF8040003208DF8050013
:1013800000208DF8060000208DF807004CF20300C5
:1013900000906946CD4800F02DFA0C220E21CB4872
:1013A00000F07AFA0C220F21C84800F075FA0C22DE
:1013B0000021C64800F070FA0C220121C34800F059
:1013C0006BFA4FF4F06000906946C14800F012FAE1
:1013D0000C220721BE4800F05FFA0C220821BC480D
:1013E00000F05AFA0C220921B94800F055FA0C22F3
:1013F0000A21B74800F050FAB020009002208DF882
:10140000040003208DF8050000208DF80600002060
:101410008DF807006946AD4800F0ECF90C22042174
:10142000AA4800F039FA0C220521A84800F034FA45
:101430000C220721A54800F02FFA012000906946F0
:10144000A44800F0D7F90C220021A24800F024FAA9
:101450008220009001208DF8040002208DF8050004
:1014600000208DF8060000208DF807006946994895
:1014700000F0C0F907BD80B596B00121012000F051
:10148000A5F9032000900320019003200290002082
:10149000039002200490022005905FF08050069097
:1014A00000200790002008900020099000200A905A
:1014B00000200B9000200C9000200D9000200E903A
:1014C00000200F904FF480501090002011900020C9
:1014D000129000201390684614906846159007A853
:1014E00000F004FA0121002000F08BFA17B000BDD3
:1014F00080B5FFF73AFFFFF7BEFF802076490880EE
:101500000220754908800A2000F09EFA02207349E3
:1015100008800A2000F098FA02206F4908803220E3
:1015200000F092FA0120FFF7FDFE322000F08CFA65
:101530001120FFF7F7FE782000F086FA2620FFF74B
:10154000F1FE0420FFF7F2FEB120FFF7EBFE0A20C8
:10155000FFF7ECFE1420FFF7E9FEC020FFF7E2FEE4
:101560000820FFF7E3FE0020FFF7E0FEC120FFF7B1
:10157000D9FE0520FFF7DAFEC520FFF7D3FE38209D
:10158000FFF7D4FE3520FFF7D1FE3A20FFF7CAFE61
:101590000620FFF7CBFE2A20FFF7C4FE0020FFF74E
:1015A000C5FE0020FFF7C2FE0020FFF7BFFE7F2030
:1015B000FFF7BCFE2B20FFF7B5FE0020FFF7B6FEBD
:1015C0000020FFF7B3FE0020FFF7B0FE9F20FFF7DB
:1015D000ADFE3620FFF7A6FE7020FFF7A7FEB7206E
:1015E000FFF7A0FE0020FFF7A1FEF220FFF79AFE12
:1015F0000120FFF79BFEE020FFF794FE3F20FFF75E
:1016000095FE2220FFF792FE2020FFF78FFE30206C
:10161000FFF78CFE2920FFF789FE0C20FFF786FEDE
:101620004E20FFF783FEB720FFF780FE3C20FFF738
:101630007DFE1920FFF77AFE2220FFF777FE1E209D
:10164000FFF774FE0220FFF771FE0120FFF76EFE28
:101650000020FFF76BFEE120FFF764FE0020FFF79C
:1016600065FE1B20FFF762FE1F20FFF75FFE0F20C5
:10167000FFF75CFE1620FFF759FE1320FFF756FE1A
:101680003120FFF753FE8420FFF750FE4320FFF781
:101690004DFE0620FFF74AFE1D20FFF747FE2120E2
:1016A000FFF744FE3D20FFF741FE3E20FFF73EFEE0
:1016B0003F20FFF73BFE2920FFF734FE01210020E9
:1016C00000F040F801BD000001000060000C024085
:1016D0000010024000140240181402401A14024084
:1016E000F8B504000D0016001F002A20FFF71AFEAF
:1016F000300080B2A12800DBA026380080B281280B
:1017000000DB80270020FFF711FE2000C0B2FFF7AA
:101710000DFE0020FFF70AFE3000C0B2FFF706FE04
:101720002B20FFF7FFFD0020FFF700FE2800C0B2CE
:10173000FFF7FCFD0020FFF7F9FD3800C0B2FFF70E
:10174000F5FDF1BD70B505000C0020263620FFF731
:10175000E9FDA4B2002C01D056F08006ADB2002DF8
:1017600001D056F040063000C0B2FFF7DFFD70BD7B
:1017700070B504008023A02200210020FFF7B0FFF5
:10178000FFF7D8FD002606E02000FFF7D8FD6D1C0E
:10179000A02DF9D3761C802E01D20025F8E7FFF7A3
:1017A000DFFD70BDC9B2002907D0DFF8401009681D
:1017B0000843DFF83810086007E0DFF830100968E8
:1017C00031EA0000DFF8241008607047C9B2002930
:1017D00005D00749096808430549086005E0044940
:1017E000096831EA00000249086070473038024059
:1017F0003838024030B4002200220022002347E0A3
:1018000001229A400C681440944240D10468032598
:101810001A00D2B252009540AC43046004680D79BE
:101820001A00D2B2520095402C4304600A79012A72
:1018300002D00A79022A1AD1846803251A00D2B28A
:1018400052009540AC43846084684D791A00D2B24E
:10185000520095402C438460426801249C40A2437E
:10186000426042688C799C40A4B222434260C468C2
:1018700003251A00D2B252009540AC43C460C4683C
:10188000CD791A00D2B2520095402C43C4605B1C43
:10189000102BB5D330BC704770B400230023D2B2F4
:1018A00011F00703DBB29B009A400B009BB2DB10E8
:1018B00000EB83040B009BB2DB1000EB83031D6A7B
:1018C0000F2611F00703DBB29B009E40B543256253
:1018D0000B009BB2DB1000EB83031B6A1A4389B237
:1018E000C91000EB8100026270BC7047002100212A
:1018F00000215FF02041026851F82220DFF83C11FE
:101900000A40436881680B43C1680B4301690B437C
:1019100041690B4381690B43C1690B43016A0B4366
:10192000416A0B43816A0B43C16A0B43016B0B4352
:101930001A435FF02041036841F823208168082999
:101940000BD15FF02041026851F8221051F04001A4
:101950005FF02042036842F823105FF020410268E4
:1019600001EB82014A6812F04042416B0B68416B07
:10197000496853EA0113416B896853EA0123416BBB
:10198000C96853EA0143416B096953EA0153416B4A
:10199000496953EA0163416B89690B431A435FF05C
:1019A0002041036801EB83014A60C16AB1F5804FB1
:1019B0001FD1DFF88410026851F82220DFF8801070
:1019C0000A40816B0B68816B496853EA0113816B94
:1019D000896853EA0123816BC96853EA0143816B2B
:1019E00089690B431A43DFF85010006841F8202042
:1019F00006E07FF07041DFF84020006842F82010D8
:101A00007047C9B200290AD05FF0204151F8201078
:101A100051F001015FF0204242F820100AE05FF02F
:101A2000204151F82020DFF81C100A405FF02041CF
:101A300041F8202070470000040100A08000F7FF5B
:101A40000000F0CFFEFF0F0038B50400002504E0D1
:101A50004FF47A7000F008F86D1C2800210080B265
:101A600089B28842F4D331BD81B080B206214843A7
:101A7000009002E00098401E009000980028F9D1E4
:101A800001B07047000000000000000000000000EE
:101A90000000000000001E101010101000000000D8
:101AA0000000F010101010101010101010101E0078
:101AB00000000000101010101010F00000000000D6
:101AC0001010101010101010101010100000000056
:101AD0000000FE000000000000000000387C7C7C5C
:101AE00038000000FEFEFEFEC6828282C6FEFEFEBA
:101AF000000000003844444438000000FEFEFEFEB2
:101B0000C6BABABAC6FEFEFE000E060A0A10304871
:101B100048483000003844443810107C1010100041
:101B20000010181C161212121470600000063A22DF
:101B3000263A2222266660000010543828286C2895
:101B400038541000101010101010FE10101010104B
:101B50000002060E1E3E7E3E1E0E06021038541077
:101B60001010101010543810002828282828282871
:101B7000002828003E4A4A4A4A3A0A0A0A0A0A0A39
:101B8000101010101010FE000000000000000000F7
:101B90000000FE1010101010101010101010F01097
:101BA00010101010103854101010101010101010C9
:101BB0001010101010101E10101010100000000057
:101BC00008047E04080000000000000010207E20B1
:101BD00010000000000000000000000000000000F5
:101BE00000000000000000000000000000000000F5
:101BF00000000000000000000000000000000000E5
:101C000000000000000000000000000000000000D4
:101C100000101010101010100010100000282800E4
:101C20000000000000000000001212127E2424FCBC
:101C30004848480010385450503814141454381080
:101C400000225254280810142A2A44000018242480
:101C50002810284A44443A000010100000000000F8
:101C60000000000008101020202020202010100864
:101C700020101008080808080810102000000000B4
:101C800010107C10280000000000000010107C10D4
:101C900010000000000000000000000000101020F4
:101CA0000000000000007E000000000000000000B6
:101CB00000000000001010000202040408081010C8
:101CC00020204040003C42424242424242423C00CC
:101CD000001030101010101010101000003C424284
:101CE0000204182040407E00003C4242021C0202D6
:101CF00042423C00000C0C14142424447E040400D2
:101D0000007E4040407C420202423C00003C424097
:101D1000407C424242423C00007E424204040408AD
:101D200008080800003C4242423C424242423C0019
:101D3000003C424242423E0202423C000000001887
:101D40000000000018000000000000180000000063
:101D50001808100000000006083040300806000097
:101D6000000000007E00007E000000000000006017
:101D7000100C020C106000000038444404081010DD
:101D800000101000001C224E525252525E403C0085
:101D9000001010102828283844444400007C424297
:101DA000427C424242427C00003C42424040404031
:101DB00042423C000078444242424242424478005F
:101DC000007E4040407E404040407E00007E4040DB
:101DD000407C404040404000003C424240404E4237
:101DE00042463A0000424242427E42424242420061
:101DF0000010101010101010101010000004040437
:101E000004040404444438000042444850606050D4
:101E100048444200004040404040404040407E0036
:101E20000044446C6C6C5454544444000044446476
:101E30006454544C4C4444000018244242424242F0
:101E400042241800007C424242427C404040400014
:101E5000003C424242424242524A3C02007C4242E0
:101E600042427C4242424200003C424240300C022C
:101E700042423C00007C1010101010101010100096
:101E8000004242424242424242423C0000444444F8
:101E90004428282810101000005454545454547CE2
:101EA00028282800004444282810102828444400EA
:101EB000004444444428281010101000007E0204FE
:101EC0000408101020407E00181010101010101080
:101ED0001010101800545454FE545454382828003C
:101EE0003010101010101010101010300010284476
:101EF00000000000000000000000000000000000E2
:101F000000007E0000201000000000000000000023
:101F1000000000003844043C44443A000040404083
:101F20007844444444447800000000003844404071
:101F300040443800000404043C44444444443C000D
:101F4000000000003844447C404438000008101071
:101F50003810101010101000000000003C444444E1
:101F60003C044438004040407844444444444400E5
:101F700000101000101010101010100000101000B1
:101F80001010101010101060004040404448506085
:101F900050484400001010101010101010101000C5
:101FA00000000000685454545454540000000000D1
:101FB000784444444444440000000000384444440D
:101FC00044443800000000007844444444784040D1
:101FD000000000003C444444443C04040000000071
:101FE0002C30202020202000000000003844403801
:101FF00004443800000020207820202020201800F1
:10200000000000004444444444443C0000000000FC
:102010004444442828101000000000005454545434
:1020200038282800000000004444281028444400B8
:102030000000000044444428281010600000000004
:102040007C04081020407C00081010101060101054
:102050001010100810101010101010101010101088
:1020600020101010100C1010101010200000000094
:1020700000324C000000000000007C444444444412
:1020800044447C000000000000000000000000004C
:10209000000000001C101010000000000000F010F4
:1020A00010101010101010101C0000001010101054
:1020B0001010F00000001010101010101010101070
:1020C000000000000000FC000000000000307878F4
:1020D00078300000FCFCFCCC848484CCFCFC000048
:1020E0000030484848300000FCFCFCCCB4B4B4CC10
:1020F000FCFC001C0C0C14103048483000384444E0
:1021000038107C101010002030382C2424206060FF
:10211000000C342C3424242C6C6000545428286C7B
:1021200028285454101010101010FC101010000427
:102130000C1C3C7C3C1C0C041038101010101010AF
:102140003810282828282828280028283C545454A7
:10215000341414141414101010101010FC0000008B
:10216000000000000000FC101010101010101010E3
:10217000F010101010381010101010101010101057
:10218000101010101C10101000000000087C080037
:10219000000000000000207C200000000000000083
:1021A000000000000000000000000000000000002F
:1021B000000000000000000000000000000000001F
:1021C00000000000000000000000000000001010EF
:1021D000101010101000101028280000000000003F
:1021E000000014147C282828FC50505010385450FB
:1021F00030181414543824545828101028345448D3
:102200003048484830544848483410100000000016
:102210000000000008101020202020202010201096
:10222000100808080808081000000010107C10288A
:10223000000000000010107C1010000000000000E2
:1022400000000000101000000000007C00000000F2
:102250000000000000000000101004040808101026
:1022600020204040384444444444444444381030DE
:1022700010101010101010103844440408102040A2
:10228000407C38444404180404444438081818288E
:102290002848487C08087C4040407844040444387E
:1022A000384440407844444444387C44440408085A
:1022B00010101010384444443844444444383844DE
:1022C0004444443C04044438000010100000001052
:1022D0001000000010100000001010200000040882
:1022E000304030080400000000007C007C0000004A
:1022F000000040201804182040003844440408100E
:102300001000101018244C545454545C40381010D1
:10231000102828287C444444784444447844444465
:10232000447838444440404040444438784444442D
:102330004444444444787C4040407C404040407C9D
:102340007C404040784040404040384444405C44F9
:1023500044444C34444444447C4444444444101075
:10236000101010101010101008080808080808486D
:1023700048304448485060505048484440404040ED
:1023800040404040407C44446C6C6C545454444441
:102390004444646454544C4C444438444444444499
:1023A00044444438784444444478404040403844AD
:1023B000444444444444543878444444447848446D
:1023C0004444384444201008044444387C1010101D
:1023D0001010101010104444444444444444443801
:1023E000444444442828281010105454545454543D
:1023F00054282828444428281010282844444444B9
:1024000044282828101010107C04080810102020E0
:10241000407C30202020202020202020545454FCB8
:102420005454542828283010101010101010101078
:102430003048000000000000000000000000000024
:10244000000000002010000000000000000000005C
:102450000030483848484834404040784444444478
:102460004478000000384440404044380404043CB0
:1024700044444444443C0000003844447C404438D4
:10248000102020702020202020200000003C444408
:10249000443C044440404078444444444444101084
:1024A000001010101010101010100010101010104C
:1024B00010104040404448506050484400101010F4
:1024C000101010101010000000685454545454544C
:1024D000000000784444444444440000003844442C
:1024E00044444438000000784444444478400000A8
:1024F000003C444444443C040000002C3020202094
:10250000202000000038444038044438002020785F
:102510002020202020180000004444444444443C2F
:102520000000004444442828101000000054545473
:10253000543828280000004444281028444400004F
:1025400000444444282810100000007C0408102097
:10255000407C081010101060101010101010101097
:1025600010101010101040202020201820202020B3
:102570000000000000344800000000784848484847
:102580004848487880B54848006850F4700046498B
:1025900008604648006850F0010044490860002087
:1025A0004349086041480168424801403F48016092
:1025B0004148424908603D48006830F480203B496A
:1025C000086000203E49086000F005F85FF00060F8
:1025D0003C49086001BD82B00020019000200090BD
:1025E0003248006850F48030304908602F48006855
:1025F00010F4003000900198401C019000980028D1
:1026000003D10198B0F5A04FF0D1284800688003AD
:1026100002D50120009001E00020009000980128E0
:102620003ED12948006850F080502749086027486B
:10263000006850F44040254908601D4800681C4966
:1026400008601B48006850F40040194908601848A9
:10265000006850F4A050164908601D4817490860EA
:102660001248006850F08070104908600F480068F8
:102670008001FBD540F20570164908600C480068DF
:10268000800880000A4908600948006850F002008C
:10269000074908600648006810F00C000828F9D1C6
:1026A00002B070470000000088ED00E000380240F2
:1026B00008380240FFFFF6FE1030002404380240C4
:1026C0000C38024008ED00E0403802400070004045
:1026D00019544007003C024030B501688468421834
:1026E000416802EB5103C9070BD54C4409E012F9CC
:1026F000011B12F8015B002904F8015B05D5491C98
:10270000F9D19A42F3D10C3030BD491EF1D5F8E72A
:1027100010B5074979441831064C7C44163404E05E
:102720000A68081D114488470146A142F8D110BD2E
:102730002C000000380000004EF68851CEF2000157
:10274000086840F470000860BFF34F8FBFF36F8FCD
:102750004FF00070E1EE100A704700007DFFFFFFB0
:1027600008020000380000000000002000F00DF812
:10277000002801D0FFF7CCFFAFF300800020AFF3BB
:102780000080FDF701FD00F002F80120704700F025
:1027900001B800000746384600F002F8FBE70000E9
:1027A00080B5AFF30080024A11001820ABBEFBE7F2
:1027B00026000200464C3A202020422031203220C0
:1027C0003320342035203600323031353133343047
:1027D000323220534A4800000148804701480047F0
:1027E00085250008F52700085320202020364E6F4D
:1027F0003A000000AFF30080FFF79EFFFFF7B6FF3F
:10280000FFF7FEBFFFF7FEBFFFF7FEBFFFF7FEBFFC
:10281000FFF7FEBFFFF7FEBFFFF7FEBFFFF7FEBFEC
:10282000FFF7FEBFFFF7FEBFFFF7FEBFFFF7FEBFDC
:10283000FFF7FEBFFFF7FEBFFFF7FEBFFFF7FEBFCC
:10284000FFF7FEBFFFF7FEBFFFF7FEBFFFF7FEBFBC
:10285000FFF7FEBFFFF7FEBFFFF7FEBFFFF7FEBFAC
:10286000FFF7FEBFFFF7FEBFFFF7FEBFFFF7FEBF9C
:10287000FFF7FEBFFFF7FEBFFFF7FEBFFFF7FEBF8C
:10288000FFF7FEBFFFF7FEBFFFF7FEBFFFF7FEBF7C
:10289000FFF7FEBFFFF7FEBFFFF7FEBFFFF7FEBF6C
:1028A000FFF7FEBFFFF7FEBFFFF7FEBFFFF7FEBF5C
:1028B000FFF7FEBFFFF7FEBFFFF7FEBFFFF7FEBF4C
:1028C000FFF7FEBFFFF7FEBFFFF7FEBFFFF7FEBF3C
:1028D000FFF7FEBFFFF7FEBFFFF7FEBFFFF7FEBF2C
:1028E000FFF7FEBFFFF7FEBFFFF7FEBFFFF7FEBF1C
:1028F000FFF7FEBFFFF7FEBFFFF7FEBFFFF7FEBF0C
:10290000FFF7FEBFFFF7FEBFFFF7FEBFFFF7FEBFFB
:10291000FFF7FEBFFFF7FEBFFFF7FEBFFFF7FEBFEB
:10292000FFF7FEBFFFF7FEBFFFF7FEBFFFF7FEBFDB
:10293000FFF7FEBFFFF7FEBFFFF7FEBFFFF7FEBFCB
:10294000FFF7FEBFFFF7FEBFFFF7FEBFFFF7FEBFBB
:10295000FFF7FEBFFFF7FEBFFFF7FEBFFFF7FEBFAB
:10296000FFF7FEBFFFF7FEBF088420000806000A3D
:10297000000AFD0008841A000808000C000CE100A1
:04298000FD01FD0058
:04000005080027F5D3
:00000001FF
